:020000040800F2
:1000000020CA012025030008893D00085531000859
:10001000853D0008C11D00089B7800080000000015
:10002000000000000000000000000000815E0008E9
:100030008126000800000000A54100089561000825
:100040003F0300083F0300083F0300083F03000888
:100050003F0300083F0300083F0300083F03000878
:100060003F0300083F0300083F0300083F03000868
:100070003F0300083F0300083F0300083F03000858
:100080003F0300083F0300083F0300083F03000848
:100090003F0300083F0300083F0300083F03000838
:1000A0003F0300083F0300083F0300083F03000828
:1000B0003F0300083F030008016200083F030008F7
:1000C0003F0300083F0300083F0300083F03000808
:1000D0003F030008E97400083F0300087175000839
:1000E0003F0300083F0300083F0300083F030008E8
:1000F0003F0300083F0300083F0300083F030008D8
:100100003F030008594400083F0300083F0300086C
:100110003F0300083F0300083F030008396200085E
:100120003F0300083F0300083F0300083F030008A7
:100130003F0300083F0300083F0300083F03000897
:100140003F0300083F0300083F0300083F03000887
:100150003F0300083F0300083F0300083F03000877
:100160003F0300083F0300083F0300083F03000867
:100170003F0300083F0300083F0300083F03000857
:100180003F0300083F03000800F002F800F0B2F857
:100190000AA090E8000C82448344AAF10107DA45E2
:1001A00001D100F0A7F8AFF2090EBAE80F0013F082
:1001B000010F18BFFB1A43F001031847A4D0000039
:1001C000C4D000000A444FF0000C10F8013B13F0BB
:1001D000070408BF10F8014B1D1108BF10F8015BA0
:1001E000641E05D010F8016B641E01F8016BF9D193
:1001F00013F0080F1EBF10F8014BAD1C0C1B09D1EA
:100200006D1E58BF01F801CBFAD505E014F8016B5B
:1002100001F8016B6D1EF9D59142D6D370470000ED
:100220000023002400250026103A28BF78C1FBD8FF
:10023000520728BF30C148BF0B6070476E2900F0DD
:10024000CD83702900F08F8166290BF0018265292A
:100250000BF0FE8167290BF0FB816129AFF3008071
:1002600003681B0A28BF41F08001692900F0008162
:10027000642900F0FD80752900F0FA806F2900F0F4
:10028000C584782900F05B81E92900F05F84E429C6
:1002900000F05C84F52900F05984EF2900F0C28455
:1002A000F82900F05A810368DB0928BF41F080017A
:1002B000632900F0CE83732900F0D383E32900F093
:1002C000AF87F32900F0B487002070471FB50BF00B
:1002D000BAF901F071F80400002000210AF080FB57
:1002E000401C6060002000210AF090FBE0601FBD10
:1002F00010B510BD01F03AF81146FFF7E7FF09F01D
:100300007DF801F019F903B4FFF7F2FF03BC07F021
:10031000B1FC000030BF72B6704762B6704780F320
:10032000088870470948804709480047FEE7FEE70C
:10033000FEE7FEE7FEE7FEE7FEE7FEE7FEE7FEE795
:1003400004480549054A064B7047000099610008BA
:100350008901000820C4012020CA012020C60120F4
:1003600020C60120704700001CB50C46064B7B449C
:1003700069460090204600F04AFB0446002069468A
:1003800000F058FB20461CBDC30600000FB4044912
:1003900010B503AA029800F069FB10BC5DF814FBCD
:1003A000040000200FB41CB5084B06AA7B44694624
:1003B0000090059800F02BFB04460020694600F0F1
:1003C00039FB20461CBC5DF814FB000085060000CC
:1003D00070B5044685690068C10601D5302600E085
:1003E0002026C00707D070BDD4E9012130469047D0
:1003F000206A401C20626D1EF6D570BD70B50446A3
:1004000085690078C00707D170BDD4E9012120209B
:100410009047206A401C20626D1EF6D570BD70B5F5
:100420000C460546012A05D02878800600D5EA69E1
:10043000002302E0012305E05B1C934202D2E05C52
:100440000028F9D1A869E618C01AA861286A1844DA
:1004500028622846FFF7BCFF04E0D5E9012114F823
:10046000010B9047B442F8D32846FFF7C7FF70BD91
:100470002DE9F0410646002410687529314616A57D
:1004800010D000F040FA002802DA404213A507E03D
:1004900031688A0701D512A502E0490704D511A5E4
:1004A000012401E000F038FA00210A2206F12407B5
:1004B00009E0B0FBF2FCB0FBF2F302FB1C003030B1
:1004C00078541846491C0028F3D123462A46304662
:1004D000BDE8F04100F029BA000000002D00000046
:1004E0002B00000020000000F0B40D460188090533
:1004F00002D5214C7C4402E01F4C7C440E34002188
:1005000000F1240608E002F00F071209E75D42EA55
:1005100003721B097754491C52EA0307F3D102788E
:100520000023120704D5702D06D009B1022311341F
:100530002246F0BC00F0F9B901231034F8E770B599
:1005400004460D462146106800F0E6F902462946A9
:100550002046BDE870400023C6E7D21D22F0070305
:10056000D3E90023C0E70368126843F02003036067
:100570000823C3610023B7E71CCA00002DE9F05F20
:10058000894604464FF0000ADFF874B1FB44C0F816
:1005900020A02046E1688847002874D0252806D08E
:1005A000D4E901219047206A401C2062F1E700262F
:1005B0005F462046E16888472028054607DB312D45
:1005C00005D2781910F8200C08B10643F1E7B007FE
:1005D00001D526F00406C4F81CA00027C4F818A012
:1005E0002A2D09D0284607F03EFB38B304EB8708D4
:1005F000303DC8F8185019E059F8041B204604EBA8
:1006000087029161E1688847012F054618D1E069AA
:10061000002820DA26F020061DE0D8F8180000EBAC
:10062000800005EB40003038C8F818002046E1682B
:100630008847054607F017FB0028EED1012F0AD0A6
:100640002E2D08D12046E16888477F1C0546022FE1
:1006500046F02006C4DBA069002803DA404246F0D9
:100660000106A061F00701D026F010066C2D0BD01A
:10067000682D09D04C2D39D06A2D35D0742D35D048
:100680007A2D33D016E038E0E1682F4620468847BF
:10069000B842054609D16C2F26D04FF48060E1683E
:1006A000064320468847054604E06C2F1AD04FF4D5
:1006B000807006430DB3A5F14100192802D82035FA
:1006C00046F400664A462946204626604E46FFF715
:1006D000B5FD80B101280BD0F61D26F0070000F112
:1006E000080956E74020E4E78020D8E70020D6E755
:1006F00006F104094DE7284652E7206ABDE8F09F5D
:10070000ACC9000070B5064600F0EEF80468054676
:1007100030460A22002100F08FFA2C6070BD30B5FF
:1007200005460B462A4613F8014B12F8010B08B197
:10073000A042F8D01CB1002802D06D1CF1E7284679
:1007400030BD10B5431C02E010F8011B71B18107E8
:10075000FAD14FF0013202C88C1A8C4314EAC2114C
:10076000F9D0C01A0A0603D0C01E10BDC01A10BDB1
:100770000A0401D0801E10BD0902FCD0401E10BD2D
:10078000032A40F2308010F0030C00F0158011F8BD
:10079000013BBCF1020F624498BF11F801CB00F895
:1007A000013B38BF11F8013BA2F1040298BF00F8E9
:1007B00001CB38BF00F8013B11F0030300F0748255
:1007C000083AC0F0088051F8043B083A51F804CBCD
:1007D000A0E80810F5E7121D5CBF51F8043B40F893
:1007E000043BAFF30080D20724BF11F8013B11F89E
:1007F00001CB48BF11F8012B24BF00F8013B00F8E2
:1008000001CB48BF00F8012B704710B5044610F02B
:10081000030F08BF11F0030F40F015804FF0013EA9
:10082000121FC0F20E8051F8043BA3EB0E0C2CEA11
:10083000030C1CEACE1C08BF40F8043BF0D0A1F129
:10084000040102F10402521E08DB11F8013B002BE7
:1008500000F8013BF7D1114600F058FA204610BDD0
:100860004FF0013C50F8042B51F8043B9A4221D13F
:10087000A2EB0C03934313EACC1317D150F8042BCB
:1008800051F8043B9A4215D1A2EB0C03934313EAAF
:10089000CC130BD150F8042B51F8043B9A4209D1E8
:1008A000A2EB0C03934313EACC13DBD04FF0000010
:1008B000704700BFD01A01BAB1FA81F101F01801F6
:1008C00022FA01F0CB40C1F12001DBB2C0B2C01A64
:1008D0002CFA01F3D11A914311EAC311E6D1704702
:1008E000704770477047704700487047BCC301208D
:1008F00010B5FFF7F9FF006810BD10B50446FFF70B
:10090000F3FF046010BD09684A0501D540B2704785
:10091000C905FCD500B2704709684A0501D5C0B2C7
:100920007047C905FCD580B270472DE9F0470D46E8
:1009300099469246044600F124080168880604D5C9
:10094000E06921F01001216000E00120A84201DDF2
:10095000471B00E00027A1697A1902EB0900081A79
:10096000A0612078C00602D42046FFF731FD0026A2
:1009700008E0D4E901211AF806009047206A401CDB
:10098000761C20624E45F4DB2078C0060AD520464E
:10099000FFF71EFD06E0D4E9012130209047206AD0
:1009A000401C2062381EA7F10107F4DC07E0D4E9FF
:1009B000012118F805009047206A401C2062281E7B
:1009C000A5F10105F3DC2046FFF718FD20780006AD
:1009D00002D50220BDE8F0870120FBE7116802681C
:1009E000006A530501D508700AE0D30501D50880D7
:1009F00006E0130603D5C217C1E9000200E0086053
:100A00000120704701694A1C02610878704700B5EF
:100A10008FB0CDE901310021059105497944CDE937
:100A2000031011466846FFF7A9FD0FB000BD000096
:100A3000E5FFFFFF0A6802F8010B0A60704710B576
:100A4000436913B1AFF3008001E0FFF7E8FC012038
:100A500010BD127800F124010A7000224A700122B0
:100A6000EDE711684FF0FF32E9E70000074B70B582
:100A70000D467B44FFF7CBFF0446284600F02BFCD5
:100A800010B14FF0FF3070BD204670BD1F890000CF
:100A90002DE9FF5F15468A460446DFF8AC80F8442E
:100AA0000027D8E900103E46CDE9001010E03AF8E2
:100AB00016106A4602A800F012FC411C07D02178EB
:100AC000890603D5E269391891420DD80744761C8E
:100AD0002078800602D5E069B84205DDAE42E6DB4B
:100AE0003AF816000028E2D1A069C01BA061204698
:100AF000FFF76EFCD8E90010CDE90010002017E0E8
:100B00003AF818106A4602A800F0E9FBB0F1FF3F7E
:100B100081460BD000250DF1080B05E0D4E9012139
:100B20001BF8050090476D1C4D45F7D308F10100F7
:100B3000B0428046E4DB206A384420622046FFF75A
:100B40005DFCBDE8FF9F0000AEC400002DE9F04150
:100B50008046D21D22F007020025D2E90002F529C5
:100B600015A614D0011E72F1000106DA0023D0EBA5
:100B7000030063EB020211A608E0D8F800108B070F
:100B800001D50FA602E0490701D50EA601251146A1
:100B9000002408F1240704E000F0E6F830323A556A
:100BA000641C50EA0102F7D12B46324621464046EA
:100BB000BDE8F041FFF7B9BE000000002D000000C5
:100BC0002B0000002000000030B4002100F12404BC
:100BD00008E002F00705D208303542EA4372DB082C
:100BE0006554491C52EA0305F3D10468002310A29E
:100BF000250708D504F020040C4304D0C469012360
:100C00000CA2641EC46130BCFFF78FBE10B5044651
:100C100021461068FFF780FE02462046BDE81040DE
:100C20000023D1E7D21D22F00701D1E90023CBE751
:100C300000000000300000002DE9F04791460F460B
:100C400080460446002614F8015B2DB100F084F8BC
:100C50000068405DC007F6D12B2D02D02D2D18D095
:100C6000641E4A463946204600F0E6FA27B1396844
:100C7000A14201D1C7F800804FF0020471050BD5E5
:100C80004042002803DDFFF72FFE0460A007BDE807
:100C9000F08746F48066E4E70028F8DAFFF724FEE0
:100CA00004606FF00040F2E710B5203AC0F00B800E
:100CB000B1E81850203AA0E81850B1E81850A0E860
:100CC0001850BFF4F5AF5FEA027C24BFB1E81850BA
:100CD000A0E8185044BF18C918C0BDE810405FEA2A
:100CE000827C24BF51F8043B40F8043B08BF7047A6
:100CF000D20728BF31F8023B48BF11F8012B28BFAB
:100D000020F8023B48BF00F8012B70474FF000026B
:100D10000429C0F0128010F0030C00F00283CCF123
:100D2000040CBCF1020F18BF00F8012BA8BF20F87B
:100D3000022BA1EB0C0100F0F4BA5FEAC17C24BFE6
:100D400000F8012B00F8012B48BF00F8012B704779
:100D500000487047BCC3012010B500F02DFB001DFA
:100D600010BD00BF7D9C000030B5B0F10A024FEA13
:100D7000900E71F100034EEA817EB0EB0E0061EB44
:100D800091014FEA101E4EEA017E10EB0E0041EB7E
:100D900011114FEA102E4EEA016E10EB0E0041EBDE
:100DA00011214FEA104E4EEA014E10EB0E0041EBBE
:100DB0001141401841F100014FEAD00040EA417072
:100DC0004FEAD10110EB80054FEA810444EA9074A8
:100DD00044EB01046D1944EB0404521BA3414FF092
:100DE000000348BF0A3200D530BD401C41F100016C
:100DF00030BD70472DE9FF4F0C461E464FF0FF37C0
:100E00008BB0D2E90001DDF860800A908A46C1F318
:100E10000A5505B93D46002108464FF00000BAF1D9
:100E2000000F00F4400005DA00EB80004FF44001B1
:100E300001EA50004FEA9059B9F1010F00DDB946BF
:100E40000A9850EA4A000ED044F61050A5F2FF3539
:100E500045432F14B8F1000F1ED07542291E1EDD28
:100E6000C9F100021CE0B8F1010F4FF0000001D001
:100E7000302103E0F24305E02154401CB042FBDB8B
:100E800030460022002121540B99C1F80880C1E9A5
:100E900000200FB0BDE8F08FBD1B6D1CDEE74A4699
:100EA00000DA694206A800F0D9FA06AB93E8070019
:100EB00003AB83E8070050460A9900F043FB8DE836
:100EC0000700A0F500501F3800900398002D09DDA1
:100ED00042F21F014A46084403A90390684600F005
:100EE000A2FD08E0A0F500504A461F3803A9039070
:100EF000684600F0ACFD8DE807000004000C03D04C
:100F00004FF0FF30410800E01046B8F1000F03D069
:100F10000022009215461EE0751E05D4FFF724FF3F
:100F2000303262556D1EF9D5B3460122084302D016
:100F300000227F1C04E02078302801D100227F1E8F
:100F4000002A099786D01DE0112D07DAFFF70CFF64
:100F5000303262556D1C50EA0102F5D1084302D0CF
:100F60000098C8B10EE00021681E05E0235C625CB9
:100F700063542254401E491C8142F7DBAB46A81B38
:100F8000401E0990002004F80B000B98099AC0F845
:100F90000880C0E9002B7CE711264FF0000859E7D4
:100FA0002DE9F04F88460446D21D22F0070191B08A
:100FB000D1E90001CDE90A0106F000FE02460B98D6
:100FC000C00F01D02D2007E02068810701D52B201C
:100FD00002E0202101EAC000032A099001D0072A7B
:100FE00005DB03464146204600F0EAF90BE1207894
:100FF000800601D5E06900E00620B8F1650F814662
:1010000006D0B8F1660F18D0B8F1670F70D131E093
:101010000020B9F1110F009001DB112301E009F16B
:1010200001030AAA01A90CA8FFF7E4FEDDE90C7090
:10103000002609F10105834647E001204B46009058
:101040004FF000470AAA01A90CA8FFF7D3FEDDE97B
:101050000DB00C995D46002610B909F101000D187C
:10106000B9EB050003D4C0F1FF3609F10105A5EB8A
:1010700009002BE0B9F1010F01DA4FF0010900205E
:10108000B9F1110F0090484601DD112300E003463D
:101090000AAA01A90CA8FFF7ADFEDDE90C704D46C8
:1010A00000268346207800070AD4AB4500DA5D4667
:1010B00001A8012D04DD411911F8011C302907D0C8
:1010C0004F4502DA17F1040F04DA012082460FE0DF
:1010D0006D1EEEE7002F02DCED1B3E4403E0781CA2
:1010E000A84200DD7D1CB81B00F1010A4FF000474B
:1010F0002078000703D4AA4501DB4FF0FF3A002116
:10110000B7F1004F0DF143088DF8431024D00220B1
:101110002B23002F01DA7F422D230A21021EA0F18A
:10112000010000DC5FB197FBF1FC97FBF1F201FBE2
:101130001C7C17460CF1300C08F801CDEEE7A8F145
:10114000010003702188090501D5452100E06521D2
:10115000A0F1010800F8011C09980FA9A1EB0807EC
:10116000FF1D00B10120411901EBEA70A16938446B
:10117000081A401EA0612078C00602D42046FFF75E
:1011800027F9099828B1D4E901219047206A401C29
:1011900020622078C00622D52046FFF719F91EE00C
:1011A000002E04DBB34502DD01A8805D00E03020A5
:1011B000D4E901219047206A401C2062761CAAF1E4
:1011C00001005FEA000A0AD100F0F6F8C068016881
:1011D000405CD4E901219047206A401C2062281E0F
:1011E000A5F10105DCDC07E0D4E9012118F8010BC9
:1011F0009047206A401C2062381EA7F10107F3DCEB
:101200002046FFF7FBF8032011B043E610B5436911
:1012100013B1AFF3008001E0FFF73AFC012010BDED
:10122000128800F1240182840022C2840122EDE7A9
:1012300011684FF0FF32E9E72DE9F05F824615466D
:101240008B4600270AF10104B9460078302801D006
:101250009DB113E014F8010B0127782803D058281A
:1012600001D045B10AE00DB1102D07D1002714F8C7
:10127000010B102502E0082500E00A250026B046F3
:101280000EE005FB080005FB06F101271FFA80F8B8
:1012900001EB1046B6F5803F00D3B94614F8010BB8
:1012A000294600F0CDF80028EBDABBF1000F05D09D
:1012B0000FB1641E00E05446CBF80040B9F1000FB6
:1012C00006D0FFF711FB02210160C81EBDE8F09FA8
:1012D00048EA0640FAE7007B00F08000704770B5EE
:1012E00016460C460546FFF737FD036893F80101E3
:1012F000012806D0FF2C0FD8185D68B101202C7092
:1013000070BDD3F807013246214603F207130344A8
:101310002846BDE8704018474FF0FF3070BD4FF0D1
:10132000000200B5134694469646203922BFA0E835
:101330000C50A0E80C50B1F12001BFF4F7AF090741
:1013400028BFA0E80C5048BF0CC05DF804EB890032
:1013500028BF40F8042B08BF704748BF20F8022B75
:1013600011F0804F18BF00F8012B70477546FFF74A
:10137000EFFCAE4605006946534620F0070085465F
:1013800018B020B5FEF7DCFFBDE820404FF00006A6
:101390004FF000074FF000084FF0000B21F007015D
:1013A000AC46ACE8C009ACE8C009ACE8C009ACE8A0
:1013B000C0098D467047000000487047DCC301201B
:1013C0002DE9F0411F46044603260168072A01F46F
:1013D000006004DB08B116A505E016A503E008B11E
:1013E00015A500E015A521F010002060A069C01E21
:1013F000A0610FB1401EA0612046FEF7E9FF4FB18A
:10140000D4E9012138469047206A401C2062C01C64
:10141000206206E0206AFAE7D4E9012115F8010B01
:101420009047761EF8D22046FEF7E8FFBDE8F0812F
:101430004E414E006E616E00494E4600696E660078
:101440003A2800D2303820F02002412A01D3A2F1FC
:101450003700884201D34FF0FF3070472DE9F04745
:10146000814616468AB0334878440DC88DE80D0091
:1014700030487844801C03AC0DC884E80D0041F668
:101480009B300844372190FBF1F290FBF1F5A5F178
:10149000800501FB12041B3C02D56442012000E0E0
:1014A0000020DFF890A080460027FA44AAF1BE0A87
:1014B0000DE0E00709D03246684607EB47010AEB2A
:1014C000810100F0C4FA8DE8070064107F1C002C35
:1014D000EFD1184F7F44AC3F18E0E80714D007EB7A
:1014E00004100DF1180A90E80E008AE80E00C0689A
:1014F000F04201D198190890324606A903A800F0DD
:10150000A6FA03AB83E807006D10641C002DE4D13C
:1015100032466946B8F1000F03A802D000F083FA02
:1015200001E000F094FAC9E90001C9F808200AB006
:10153000BDE8F08768BB00000446AFF3008020469A
:10154000FEF7E1FE5FEA400C08BF91F0000F4FEAA2
:101550008C234FEAC12243EA51514FEA1C5018BF75
:1015600000F5F0404FEA300018BF41F000415FEA5B
:101570006C5C00F02980BCF1FF3F08BF40F0804068
:101580007047130C06BF12044FF0100C4FF0000C04
:10159000130E04BF12020CF1080C130F04BF12014A
:1015A0000CF1040C930F04BF92000CF1020CD30F4A
:1015B00004BF52000CF1010C11464FF00002A0F1E3
:1015C0001F00A0EB0C00704711F0004F08BF7047E0
:1015D00031F000413FF4D5AF0B0C06BF09044FF0CA
:1015E000100C4FF0000C0B0E04BF09020CF1080C9C
:1015F0000B0F04BF09010CF1040C8B0F04BF890011
:101600000CF1020CCB0F04BF49000CF1010CCCF122
:101610002003A0EB0C0022FA03F302FA0CF241EAD9
:10162000030100F10100704720F07F4C80EA0300C5
:1016300023F07F47ACEB070303F57C5300F0004039
:1016400003F1FF032DE980494FEA154B09B44FEA36
:10165000144325EA0B4E24EA03480FF2042606EB56
:10166000132749083E785FEA320203FB0667C7F595
:10167000000707FB06F64FEA54374FEAD64606F155
:10168000020607FB066CCCF1005C4FEA1C472CEA13
:10169000074C07FB06F40CFB06F504EB15464FEA76
:1016A000961634BF00204FF000404FEAD13706FBBA
:1016B00007FC4FEA1C4C0CFB0BF7D21B03FB0CF78F
:1016C00061EB07010CFB0EF7B0EB074072EB174222
:1016D0000CFB08F734BFA2EB0742B2EB074261EB09
:1016E00017414FEA0C444FEA910706FB07FC4FEA0B
:1016F0001C4C0CFB0BF7B0EBC74072EB573203FBF3
:101700000CF734BFA2EBC742B2EBC74261EB5731D3
:101710000CFB0EF7B0EBC70072EB57720CFB08F72F
:1017200034BFA2EBC702B2EBC70261EB5771039F54
:101730004FEA816141EA921104EBCC044FEAD137C0
:101740004FEA826206FB07FC42EA90124FEA806091
:101750004FEA1C4C0CFB0BF7D21B03FB0CF761EBA5
:1017600007010CFB0EF7B0EB074072EB17420CFBC6
:1017700008F734BFA2EB0742B2EB074261EB174117
:101780004FEA8C554FEA910704EB9C2406FB07FCBB
:101790004FEA1C4C0CFB0BF7B0EBC74072EB573217
:1017A00003FB0CF734BFA2EBC742B2EBC74261EBBD
:1017B00057310CFB0EF7B0EBC70072EB57720CFB06
:1017C00008F734BFA2EBC702B2EBC70261EB577157
:1017D00015EB4C254FEA816141EA92114FEA826292
:1017E0004FEAD13742EA901206FB07FC44F10004AD
:1017F0004FEA80604FEA1C4C0CFB0BF7D21B03FB3B
:101800000CF761EB07010CFB0EF7B0EB074072EB36
:1018100017420CFB08F734BFA2EB0742B2EB0742BA
:1018200061EB174115EB1C154FEA813141EA9241FA
:101830004FEA823242EA90424FEA80304FEA0C7619
:1018400044F1000448EA03434EEA0B484FF0000E0F
:10185000B2EB080C71EB030724BF624639464EEB2E
:101860000E0E4FF0000B0018524149414BEB0B0B91
:10187000B2EB080C71EB03077BF1000B24BF62464F
:1018800039464EEB0E0E4FF0000B00185241494105
:101890004BEB0B0BB2EB080C71EB03077BF1000B6E
:1018A00024BF624639464EEB0E0E51EA020718BFBE
:1018B00046F0010616EB0E7655F1000254F10001D8
:1018C00003D5BDE88901BDE80088BDE88901BDE810
:1018D0000048B619524141EB0101A3F101037047E1
:1018E00080807F7E7D7C7B7A79787776767574735D
:1018F000727171706F6E6E6D6C6C6B6A6A6968681C
:10190000676666656464636362616160605F5F5EB1
:101910005E5D5D5C5C5B5B5A5A5959585857575627
:10192000565555555454535352525251515050508C
:101930004F4F4F4E4E4D4D4D4C4C4C4B4B4B4A4ADE
:101940004A49494948484847474747464646454522
:10195000454444444443434343424242424141415B
:10196000002B26D4770021D01CB54FEA370703B4EB
:101970004FF010004FF010014FF000000FBCBDE819
:1019800010400BF1010BBBF1010F08BF5FEA170715
:1019900022BF12F1010211F101014FF0004143F1A8
:1019A000000300F0004043EA00007047F9D35708F5
:1019B000DAE746EA064613F1400F4FEA16461FDD06
:1019C00013F1200FDFBF16430A46002120335B428C
:1019D000C8D0C3F1200746EA064602FA07F74FEAE5
:1019E000164646EA0706C3F1200722FA03F201FA77
:1019F00007F721FA03F14FF0000342EA0702B1E7CB
:101A000046EA020646EA06464FEA164646EA010656
:101A1000BCBF46EA0646360C4FF000034FF000020A
:101A20004FF000019EE72DE9C048934630B491E89D
:101A3000380007C831EA400C48BF34EA430C03D5EC
:101A4000FFF7F2FDFFF78CFFF0BCBDE800882DE941
:101A5000C048934630B491E8380007C810F0804F72
:101A600008BF13F0804F03D100F005F8FFF778FFAF
:101A7000F0BCBDE8008820F07F4780EA030023F037
:101A80007F4C07EB0C03A3F57C5300F00040A3F15F
:101A9000FE0392F0000F00F0B38095F0000F00F00D
:101AA00077802DE901494FEA11404FEA144621EAB7
:101AB000004800FB06FC24EA064708FB06F607FB85
:101AC00008F800FB07F718EB06484CEB164C4FEAFA
:101AD000124B18EB07484FEA15464CEB174022EA29
:101AE0000B4E0BFB06FC25EA06470EFB06F607FB32
:101AF0000EFE0BFB07F71EEB064E4CEB164C4FF0A1
:101B000000061EEB074E4CEB174B18EB0B0840F191
:101B1000000018EB0E0B58EB000840F100008F1A84
:101B20004FF000013CBFC943661B14BFB5EB040C6A
:101B300000213CBFC943F61B4FEA17444EEA8E0E04
:101B400027EA04454FEA1C4704FB07622CEA074CCE
:101B500005FB07F70CFB05F604FB0CFC16EB074630
:101B600042EB174216EB0C4642EB1C421BEB0606FF
:101B700058EB0202414146EA9E0601D5BDE80189C3
:101B8000B619524141EB0101A3F10103BDE80189FE
:101B90004FEA14454FEA114724EA054621EA074C6B
:101BA00005FB07F406FB07F70CFB06F105FB0CFC35
:101BB00011EB074144EB17444FEA124711EB0C417C
:101BC00044EB1C4422EA074C05FB07F206FB07F72F
:101BD0000CFB06F605FB0CFC16EB074642EB174226
:101BE00016EB0C4642EB1C456A1854F1000148BF45
:101BF0007047B619524141EB0101A3F1010370474F
:101C000095F0000F37D04FEA11424FEA144721EA0E
:101C1000024624EA074C02FB07F106FB07F70CFB20
:101C200006F402FB0CFC14EB074441EB17414FEAAE
:101C3000154714EB0C4441EB1C4125EA074C02FB11
:101C400007F506FB07F70CFB06F602FB0CFC16EB90
:101C5000074645EB174516EB0C4645EB1C4212199F
:101C600051F1000148BF7047B619524141EB0101E3
:101C7000A3F1010370474FEA14454FEA114724EAE4
:101C8000054621EA074C05FB07F106FB07F70CFBAD
:101C900006F24FF0000605FB0CFC12EB074241EB8D
:101CA000174112EB0C4251EB1C4148BF7047921890
:101CB00041EB0101A3F10103704710B501F074FA83
:101CC00010BD2DE9F04107460C460026002509E02D
:101CD00036023919491B491E88B200F008F806443B
:101CE000681CC5B2A542F3DB3046BDE8F08170B593
:101CF0000446002601F010FB2546E11704EB1161B4
:101D00000912A02202EB4101C8B201F0D1FA01F0A0
:101D10004FFBE11704EB11610912A4EB0121C8B2DA
:101D200001F0C6FA01F044FB01F0F6FAA12001F03F
:101D3000BFFA01F03DFB002001F084FA064601F0F5
:101D400011FB304670BD2DE9F04105460E461746A1
:101D5000002409E0E20026FA02F2D1B22A1990B278
:101D600000F006F8601CC4B2BC42F3DBBDE8F081B1
:101D700070B504460E4601F0CFFA2546E11704EB94
:101D800011610912A02202EB4101C8B201F090FAE0
:101D900001F00EFBE11704EB11610912A4EB012124
:101DA000C8B201F085FA01F003FB304601F080FA79
:101DB00001F0FEFA01F0D6FA0A2006F0ADFF70BD80
:101DC00000BFFEE710B5022006F0C2FF10BD000004
:101DD00010B500200F4908600F48006820F440004B
:101DE0000D4908600846006840F480000860FFF76D
:101DF000E9FF00200949C1F8AC02FFF7E3FF012029
:101E000004490860FFF7DEFF00200549C1F88002A1
:101E100010BD000080824042001402400080424217
:101E2000008040421CB50121222002F0BDF90120B2
:101E300000908DF8040000208DF8060001208DF838
:101E400007006946064800F07FFE4FF400600090EE
:101E500001208DF804006946024800F075FE1CBDA3
:101E6000000402400014024010B500200F49086031
:101E70000F48006820F440000D49086008460068DB
:101E800040F480000860FFF79DFF01200949C1F878
:101E9000AC02FFF797FF012004490860FFF792FFAB
:101EA00000200549C1F8800210BD00008082404238
:101EB00000140240008042420080404270B5054656
:101EC00000241548006820F44000134908600846C3
:101ED000006808601E2006F03BFF002611E000208D
:101EE0000E490860FFF76EFF01200D49C1F880021E
:101EF0006006040E0B48006808B1601CC4B2701C78
:101F0000C6B2082EEBDB15B9FFF7AEFF01E0FFF715
:101F10005FFF204670BD00000014024080824042F6
:101F2000008040422C82424270B50446134800684B
:101F300020F44000114908600846006840F4800021
:101F4000086000200E490860FFF73CFF002511E003
:101F5000E0090C4908606006040E01200A49C1F836
:101F60008002FFF72FFF002005490860FFF72AFFD6
:101F7000681CC5B2082DEBDB70BD000000140240E8
:101F800080824042AC8242420080404210B50F48FD
:101F9000006820F440000D4908600846006840F4DD
:101FA0008000086001200A4908600A49C1F88002DF
:101FB0001E2006F0CDFE002005490860FFF702FF55
:101FC00000200449C1F8800210BD00000014024046
:101FD000AC8242420080404210B50D48006820F4B7
:101FE00040000B4908600846006840F48000086023
:101FF0000120084908601E2006F0AAFE00200649BC
:10200000C1F8AC02FFF7DEFE01200449086010BDF4
:10201000001402408082404200804242AC82424230
:1020200010B500241248006820F4400010490860F0
:1020300008460068086001200E4908600E49C1F892
:102040008002FFF7BFFE09E0601CC4B2FA2C03DD7A
:10205000FFF7C2FF012010BDFFF7B4FE054880382E
:1020600000680028F0D10549086000BFF3E70000D0
:1020700000140240AC8242420080404280824042D2
:1020800070B500254FF4803404E0802002F0D0F9D0
:1020900000B103E02000A4F10104F6D100BF0CB9A7
:1020A000032070BD40F2FF5002F098F92846F8E78F
:1020B00070B5044605E01648056805F0450000B116
:1020C00000E0F8E700BF042002F0B2F920B10420DC
:1020D00002F084F9032070BD012002F0A9F920B1BB
:1020E000012002F07BF90120F5E709482438006857
:1020F000A04201D01020EEE740F2FF5002F06EF94E
:1021000003482038006808210840C0B2E3E7000017
:10211000342C014070B500264FF4803505E011489D
:10212000046804F0450000B103E02800A5F10105B2
:10213000F5D100BF15B104F0040028B10326042036
:1021400002F04CF9304670BD012002F071F918B16F
:102150000126012002F042F940F2FF5002F03EF960
:102160003046F0E7342C014010B505E00B48046818
:1021700004F0450000B100E0F8E700BF042002F0E1
:1021800057F920B1042002F029F9032010BD40F2D4
:10219000FF5002F023F90020F8E70000342C014042
:1021A0002DE9F04105460E464FF0000805E02048B5
:1021B000076807F0450000B100E0F8E700BF042021
:1021C00002F036F928B1042002F008F90320BDE836
:1021D000F081012002F02CF920B1012002F0FEF87C
:1021E0000120F4E7124824380068A84201D01020EA
:1021F000EDE740F2FF5002F0F1F80D482038046896
:1022000004F4604018B9200C30804046DFE704F445
:10221000005008B11320DAE704F4804008B1102020
:10222000D5E704F4004008B10F20D0E74046CEE7E0
:10223000342C014070B500264FF4803505E00F487E
:10224000046804F0450000B103E02800A5F1010591
:10225000F5D100BF15B104F0040028B10326042015
:1022600002F0BCF8304670BD04F0400018B1002602
:10227000402002F0B3F83046F5E70000342C01406E
:1022800039B1084A1268012383401A43054B1A608A
:1022900006E0044A1268012383409A43014B1A6006
:1022A000704700000074004030B5002200230A4C43
:1022B000226840F6FE748440A243D1E900452C43D5
:1022C0008D682C43CD6844EA050303FA00F42243E9
:1022D000014C226030BD00000074004008B50022AF
:1022E0000092054A009200F10802009B1A440092F5
:1022F000009A116008BD00000074004008B500227B
:102300000092054A009200F11402009B1A440092C8
:10231000009A116008BD00000074004021B10268FD
:1023200042F00102026003E0026822F00102026052
:1023300070470000016821F0010101600021016087
:1023400041608160C1600161212141614A49884247
:1023500004D13D21484A103A91608CE04649183139
:10236000884205D14FF47461434A103A916082E08B
:1023700041493031884205D14FF474113E4A103A38
:10238000916078E03C494831884205D14FF0746152
:10239000394A103A91606EE037496031884204D181
:1023A0003649354A103AD16065E033497831884280
:1023B00004D13349304A103AD1605CE02E49903163
:1023C000884204D12F492C4A103AD16053E02A495F
:1023D000A831884205D14FF03D51274A103AD160CB
:1023E00049E02949884204D13D21274A083A116031
:1023F00041E025491831884205D14FF47461224AE1
:10240000083A116037E020493031884205D14FF455
:1024100074111D4A083A11602DE01B494831884269
:1024200005D14FF07461184A083A116023E016494B
:102430006031884204D11149134A121F11601AE019
:1024400011497831884204D10D490F4A121F116099
:1024500011E00D499031884204D10A490A4A121FFD
:10246000116008E00849A831884204D14FF03D517D
:10247000054A121F11607047106002403D000020A5
:10248000400F002000003D201064024021B102688E
:1024900042F02002026003E0026822F020020260A3
:1024A0007047014600200A6802F001020AB10120CB
:1024B00000E000207047000010B500220268134BB6
:1024C0001A40CC680B6823434C6923438C6923432F
:1024D000CC6923430C6A23434C6A23438C6A23430D
:1024E0004C6B23438C6B23431A430260426922F0F6
:1024F0000702D1E90B3423431A4342610B6943605D
:102500004B6883608B68C36010BD00003F801CF087
:1025100070B52DED048B0446204608F0DDFC41EC3F
:10252000180B9FED140B53EC102B51EC180B08F00B
:1025300037FB41EC180B9FED110B53EC102B51ECBA
:10254000180B08F019FD41EC190B9FED0E0B53EC25
:10255000102B08F025FB41EC180B51EC180B08F080
:1025600077FC85B229460020FFF7B8FEBDEC048B4E
:1025700070BD00000000000000408F40000000001F
:1025800000FEAF406666666666660A4070B52DED71
:10259000048B0446204608F09FFC41EC180B9FED8D
:1025A000140B53EC102B51EC180B08F0F9FA41EC1A
:1025B000180B9FED110B53EC102B51EC180B08F07E
:1025C000DBFC41EC190B9FED0E0B53EC102B08F0CC
:1025D000E7FA41EC180B51EC180B08F039FC85B206
:1025E00029460020FFF78AFEBDEC048B70BD000079
:1025F0000000000000408F400000000000FEAF40DF
:102600006666666666660A4000B587B001210846C0
:1026100001F0CAFD0121480701F0D6FD30200590E8
:1026200003208DF8180002208DF81B0005A913481F
:1026300000F08AFA0020019002900390049001A912
:10264000FFF732FE01210020FFF71AFE00210846A5
:10265000FFF744FE0020019002900390049001A92E
:102660001020FFF721FE01211020FFF709FE0021B5
:102670000846FFF743FE07B000BD0000000002401F
:10268000704700000EB50121062001F08DFD0220EB
:10269000009000208DF804008DF8060003208DF8CE
:1026A000050001208DF807006946294800F04CFA22
:1026B0004FF40050009001208DF804006946254831
:1026C00000F042FAFFF7AEFB002023490860142017
:1026D00006F022FB01202149C1F8B402322006F0A5
:1026E0001BFB00208DF80800012202A900F038F938
:1026F000012202A9A42000F033F916208DF8080069
:10270000012202A9802000F02BF90C208DF808008E
:10271000012202A9882000F023F9022202A9A120A7
:1027200000F024F89DF8080030280ED19DF809002B
:1027300003280AD19DF809009DF8082000EB02212A
:1027400007A0FDF723FE00200EBD0120FCE70000DE
:102750000004024000080240B4024142000041422D
:102760004354502049443A25780D0A002DE9F041A0
:1027700006460F461546FFF709FC7020FFF7D4FB0D
:10278000FFF74EFCF0B2FFF7CFFBFFF749FCFFF776
:10279000FDFB7120FFF7C8FBFFF742FC00240BE0B4
:1027A000691EA14201D0012100E000210846FFF787
:1027B00085FB3855601CC4B2AC42F1DBFFF70CFC62
:1027C000BDE8F08171B581B0002400266148007831
:1027D000401C60490870084600780A2190FBF1F21D
:1027E00001FB120018B15B4800780A2867DA012261
:1027F00001A90220FFF7BAFF9DF8040000F00F00C6
:1028000000287ED09DF8040000F00F00062878DA3A
:102810009DF8040000F00F01FF208840C5B2E84396
:10282000C0B240F0C0004C4981F8200000245AE0BA
:10283000494890F820000121A1400840F0B34749E1
:1028400031F8140004226946FFF790FF424890F8DF
:10285000300000F00100C0B19DF801009DF80010AB
:1028600001F00F0100EB01203B49163121F8140063
:102870009DF803009DF8021001F00F0100EB01210B
:1028800035480C3020F814101DE09DF801009DF82B
:10289000001001F00F0100EB0120C0F5F07081B2D3
:1028A0002D480C3020F814109DF803009DF80210FC
:1028B00001F00F0100EB0121274801E011E020E0C9
:1028C000163020F814109DF8000000F0F000802869
:1028D00007D000212048163020F814100A3820F8BC
:1028E0001410601CC4B2052CA2DB01261A48808992
:1028F00020B91948C08A08B9002001900020154964
:1029000008709DF8040000F01F00D0B9124890F83C
:10291000200000F0800040B10F4890F8200020F027
:1029200080000D4981F820000BE04FF6FF700A4946
:102930008881C882084690F8200000F0E00081F805
:10294000200004480078F02802DD0A2001490870C0
:1029500030467CBD200000202400002014CE00085A
:102960002DE9F04105460E4617464FF00008FFF7E7
:102970000DFB7020FFF7D8FAFFF752FBE8B2FFF724
:10298000D3FAFFF74DFB00240BE0305DFFF7CCFAE4
:10299000FFF746FB8046B8F1000F00D003E0601C53
:1029A000C4B2BC42F1DB00BFFFF716FB4046BDE8F6
:1029B000F08100002DE9FC4107460D460026002469
:1029C00000200090019008205B49086010204860BA
:1029D000402088600020C8604FF48060086108468D
:1029E00001F072FD1020FFF763FB044614B120468E
:1029F000BDE8FC815148008800044F490860372039
:102A00004860402088600020C8604FF48060086102
:102A1000084601F059FD3720FFF74AFB04460CB188
:102A20002046E5E74FF0FF30454908600820486040
:102A3000302088600220C8600020086101204861C1
:102A4000084601F0DBFC00203B4908603320486069
:102A5000402088600020C8604FF48060086108460C
:102A600001F032FD3320FFF723FB04460CB1204672
:102A7000BEE70CE04FF4001001F0DAFC38B1314849
:102A800000684DF82600761C022E00D307E02D4882
:102A90004C38006840F22A6108400028EAD000BFA4
:102AA000082001F0C5FC20B1082001F097FC0420AB
:102AB0009EE7022001F0BCFC20B1022001F08EFC58
:102AC000022095E7202001F0B3FC20B1202001F086
:102AD00085FC06208CE74FF4007001F0A9FC28B1BA
:102AE0004FF4007001F07AFC072081E740F2FF50BC
:102AF00001F074FC00980006009901F47F4140EA5F
:102B00000120009901F47F0140EA1120009940EA78
:102B10001160686001980006019901F47F4140EA64
:102B20000120019901F47F0140EA1120019940EA56
:102B30001160286020465BE7B804002014000020E4
:102B4000CC040020802C0140F0B50A46002100236F
:102B5000002400BF3DE0012505FA01F3156805EAF0
:102B600003049C4234D105684F000326BE40B543A0
:102B7000056015794E00B540066835430560157946
:102B8000012D02D01579022D16D185684F0003263C
:102B9000BE40B543856055794E00B54086683543E3
:102BA0008560456801268E40B54345604568967945
:102BB0008E40B6B235434560C5684F000326BE401F
:102BC000B543C560D5794E00B540C6683543C5608C
:102BD000491C1029BFD3F0BDF0B5002300244D07D8
:102BE000ED0E02FA05F3CE1000F1200555F826503F
:102BF0004E07F70E0F26BE40B543CF1000F120065A
:102C000046F82750CE1000F1200555F8265045EA29
:102C10000304CE1000F1200545F82640F0BD4183A5
:102C200070470183704700001FB50121062001F0A5
:102C3000BBFA0220009000208DF804008DF80600F9
:102C400003208DF8050001208DF8070069463448FF
:102C5000FFF77AFF4FF40050009001208DF8040038
:102C600069463048FFF770FFFFF7DCF800202E4977
:102C700008600A2006F050F801202C49C1F8B4027F
:102C80000A2006F049F80220009001208DF8040087
:102C900000208DF8070069462148FFF755FF6420A2
:102CA00006F03AF8042202A948F2401000F054F865
:102CB00000208DF80C0002A91DA0FDF767FB1FA1E5
:102CC00002A8FDF7CDFD48BB02208DF808000122C7
:102CD00002A948F2400000F09FF9012202A948F23F
:102CE000470000F039F89DF80800602807DA9DF8E1
:102CF000081014A0FDF74AFB012000F05FF90A203C
:102D000006F00AF800208DF80800012202A948F216
:102D1000400000F081F9002004B010BD0120FBE765
:102D20000004024000080240B40241420000414257
:102D30004354502049443A25730D0A003931343741
:102D40000000000044656661756C74205665723A37
:102D500025640D0A000000002DE9F04105460F46EC
:102D60001646FFF713F92820FFF7DEF8FFF758F9AA
:102D70002812FFF7D9F8FFF753F9E8B2FFF7D4F8B4
:102D8000FFF74EF9FFF702F92920FFF7CDF8FFF71B
:102D900047F900240BE0711EA14201D0012100E09F
:102DA00000210846FFF78AF83855601CC4B2B442C7
:102DB000F1DBFFF711F9BDE8F081000071B583B0D8
:102DC0000024002679480078401C7849087008469D
:102DD00000780A2190FBF1F201FB120018B1734850
:102DE00000780A287EDA012203A948F24E10FFF784
:102DF000B3FF9DF80C0000F0800068B19DF80C0056
:102E000000F00F00062807DA00200190012201A936
:102E100048F24E1000F000F99DF80C0000F00F0091
:102E200000285FD09DF80C0000F00F000628D9DACA
:102E30009DF80C0000F00F01FF208840C0B2019007
:102E40005B4890F820509DF80400C043C0B240F0A9
:102E5000C000574981F82000084681898182C18AD3
:102E6000C183002446E0524890F820000121A1408F
:102E7000084020B34F4931F81400042202A9FFF79B
:102E80006BFF4B4890F8300000F00100C0B19DF896
:102E900008009DF8091000EB012081B2444816306B
:102EA00020F814109DF80A009DF80B1000EB01208B
:102EB000C0F5487081B23E480C3020F8141017E07D
:102EC0009DF808009DF8091000EB012081B23848F8
:102ED0000C3020F814109DF80A009DF80B1000EB40
:102EE000012000E036E081B23148163020F814109D
:102EF000601CC4B2052CB6DB01262D4880892E4902
:102F00000988884205DC2A48C08A2B4949888842BA
:102F10001DDD9DF80C0000F00F0001280ADD24489B
:102F2000C089234988810846008BC88200201F4938
:102F300008700FE01E48808A1D4988810846C08BB2
:102F4000C88280200390084680F8205002E00020CC
:102F5000164908709DF80C0000F08F0080281AD1E7
:102F6000134890F8200000F0800040B1104890F81D
:102F7000200020F080000E4981F820000BE04FF681
:102F8000FF700B498881C882084690F8200000F045
:102F9000E00081F8200005480078F02802DD0A20D2
:102FA00002490870304604B070BD000021000020C6
:102FB00024000020D6CE00089004002038B5054635
:102FC000002400208DF800008DF8015000BF09E0BA
:102FD0009DF800000F49095D0844C0B28DF800005B
:102FE000601CC4B2B82CF3D39DF80000C043401C51
:102FF000C0B28DF80000B822064948F2470000F040
:103000000BF80222694648F2FF0000F005F80020A4
:1030100038BD00001ECE00082DE9F04104460E46E2
:1030200017464FF00008FEF7B1FF2820FEF77CFF9F
:10303000FEF7F6FF2012FEF777FFFEF7F1FFE0B292
:10304000FEF772FFFEF7ECFF00250BE0705DFEF768
:103050006BFFFEF7E5FF8046B8F1000F00D003E0FC
:10306000681CC5B2BD42F1DB00BFFEF7B5FF4046AC
:10307000BDE8F0812DE9F05F82460F4614462046F8
:10308000E21704EB5272D2102146E31704EB53739C
:10309000DB10A4EBC3030BB1012300E000231A44AF
:1030A000624302F0FF099AF800600AF101008246CB
:1030B0000578812E05DB402D03DBFF2D01D0FF2E8F
:1030C0000DD14FF0000B06E0002007F8010B0BF1CB
:1030D000010000F0FF0BCB45F6DBBDE8F09F7F2D34
:1030E00003DAA5F14000C5B202E0A5F14100C5B286
:1030F000A6F18100C6B2BE2010FB065000FB09F805
:103100000C2C04D0102C0CD0182C1ED113E010481D
:10311000D0F8090000EB08014A46384604F028FCC4
:1031200013E00B48D0F8110000EB08014A4638467E
:1031300004F01EFC09E00648D0F8190000EB080175
:103140004A46384604F014FC00BF00BF00BFC4E785
:1031500080C3012000BFFEE710B500200F490860C2
:103160000F48006820F440200D49086008460068B8
:1031700040F48020086000200A49C1F8A40202201F
:1031800005F0E6FD012005490860022005F0E0FD9C
:1031900000200449C1F8A00210BD0000A0824042F6
:1031A00000040240008040421CB50121022000F0D2
:1031B000FBFF4FF44070009001208DF804000020C8
:1031C0008DF8060003208DF8050001208DF807001A
:1031D00069460548FFF7B8FC012004490860044926
:1031E000C1F8A4021CBD000000040240A0824042BD
:1031F0000080404210B500200F4908600F48006869
:1032000020F440200D4908600846006840F4802002
:10321000086001200A49C1F8A402022005F098FDC7
:10322000012005490860022005F092FD00200449B4
:10323000C1F8A00210BD0000A0824042000402407C
:103240000080404270B5054600241648006820F40E
:10325000402014490860084600680860002616E00F
:10326000002011490860022005F072FD01200F497D
:10327000C1F8A0026006040E0B487C38006808B153
:10328000601CC4B2012005F063FD701CC6B2082E9C
:10329000E6DB15B9FFF7AEFF01E0FFF75DFF204663
:1032A00070BD000000040240A08240420080404205
:1032B00070B504461548006820F4402013490860A2
:1032C0000846006840F4802008600020104908602B
:1032D000002517E0E0090E49091D08606006040E8C
:1032E000022005F035FD01200A49C1F8A0020220A4
:1032F00005F02EFD002006490860022005F028FD9B
:10330000681CC5B2082DE5DB70BD0000000402405A
:10331000A08240420080404210B50F48006820F46F
:1033200040200D4908600846006840F4802008608D
:1033300001200A4908600A49C1F8A002042005F0EA
:1033400007FD002005490860042005F001FD00206C
:103350000349C1F8A00210BD00040240A48240420B
:103360000080404210B50F48006820F440200D490D
:1033700008600846006840F48020086000200A4980
:1033800008600A49C1F8A402042005F0E1FC01200C
:10339000054908600549C1F8A402042005F0D8FCDD
:1033A00010BD000000040240A08240420080404264
:1033B00010B500241348006820F44020114908602B
:1033C00008460068086001200F49086005F0C0FC4D
:1033D00001200E49C1F8A00205F0BAFC07E0601C0C
:1033E000C4B2FA2C03DDFFF7BDFF012010BD064873
:1033F000803800680028F2D10349091F086000BF27
:10340000F4E7000000040240A482404200804042F1
:103410001CB504460020019000902248008800045A
:10342000214908600D204860402088600020C86065
:103430004FF480600861084601F046F81B480068B8
:10344000009002E0194800680090009800F04500E4
:103450000028F7D0012000F0EBFF20B1012000F0A0
:10346000BDFF01201CBD042000F0E2FF20B10420BC
:1034700000F0B4FF0320F5E70C48243800680D285D
:1034800001D01020EEE740F2FF5000F0A7FF074800
:103490002038006801900198C0F34320207000207C
:1034A000E0E7000014000020B8040020342C0140A4
:1034B00070B50446002617480588408845431548DE
:1034C000808846F60401884216D112488079012886
:1034D00012D100200F4988712A2048812B20888131
:1034E0000021084600F0F8F901200A4988712B20D4
:1034F00048812A20888103E00021084600F0ECF989
:1035000000F0E8FB002602E003480480761CAE428F
:10351000FAD370BD900400208000006C2DE9FF4FAD
:1035200084B081468A460020039002900698A0EB62
:1035300009050798A0EB0A06CDF80490CDF800A085
:10354000002D01DD012705E00DB9002702E04FF055
:10355000FF376D42002E02DD4FF0010806E016B97C
:103560004FF0000802E04FF0FF387642B54201DD2F
:103570002C4600E034464FF0000B21E0009A91B257
:10358000019A90B200F022F8039828440390029820
:10359000304402900398A04205DD0398001B03907D
:1035A0000198384401900298A04205DD0298001B62
:1035B00002900098404400900BF101001FFA80FB3C
:1035C000601C8345DADD08B0BDE8F08F30B50446F5
:1035D0000D462946204600F07FF900F07BFB0248AB
:1035E00000880249088030BD0A0000208000006C7D
:1035F0002DE9F04306460F46904600244546032039
:10360000A0EB48093CE07A1B91B2321990B2FFF767
:10361000DDFF3A1B91B2721990B2FFF7D7FF3A194A
:1036200091B2721990B2FFF7D1FF7A1991B23219A3
:1036300090B2FFF7CBFF7A1991B2321B90B2FFF72D
:10364000C5FF3A1991B2721B90B2FFF7BFFF7A1B08
:1036500091B2321B90B2FFF7B9FF3A1B91B2721BC5
:1036600090B2FFF7B3FF641CB9F1000F03DAA000BA
:10367000801D814404E0601B80000A3081446D1E7F
:10368000AC42C0DDBDE8F08370B504460D46164679
:103690005B48808849F24131884205D0584880888B
:1036A00045F21031884214D15549488900F006FB93
:1036B000201200F0F7FAE0B200F0F4FA50498889DD
:1036C00000F0FCFA281200F0EDFAE8B200F0EAFA95
:1036D0008CE04B48808845F21051884220D14849FF
:1036E000488900F0EBFA201200F0DCFA44494989DD
:1036F000491C88B200F0E2FAE0B200F0D3FA404987
:10370000888900F0DBFA281200F0CCFA3C4989895C
:10371000491C88B200F0D2FAE8B200F0C3FA65E0C2
:103720003748808841F66311884228D1344880792F
:1037300020B933480088401E001B84B230494889B4
:1037400000F0BCFA201200F0ADFAE0B200F0AAFAE4
:10375000201200F0A7FAE0B200F0A4FA2849888904
:1037600000F0ACFA281200F09DFAE8B200F09AFAE4
:10377000281200F097FAE8B200F094FA36E02048F8
:10378000808846F6040188421DD11D4880790128B1
:1037900004D11B480088401E001B84B21849488988
:1037A00000F08CFA201200F07DFAE0B200F07AFA14
:1037B0001349888900F082FA281200F073FAE8B2FF
:1037C00000F070FA12E00E488079012804D10C480C
:1037D0000088401E001B84B209494889214600F038
:1037E00083FA07498889294600F07EFA044800894F
:1037F000044908804FF0D840A0F8806070BD0000F8
:10380000900400207E00006C2DE9FC4F05460E461A
:1038100017469846DDF82C900020019027488088B4
:1038200046F60401884229D124488079012825D10F
:10383000AB46354621480088C01B401E86B247462D
:103840001E480088A0EB0B00401E1FFA80F80020E5
:103850001A4988712A2048812B20888143463A469C
:1038600031462846CDF80090FFF7CEFF01201349DE
:1038700088712B2048812A2088811DE0781B401CFC
:1038800080B20190344615E02146284600F024F825
:1038900000F020FA4FF0000A07E04FF0D840A0F8FF
:1038A00080900AF101001FFA80FA01988245F4DB4A
:1038B000601C84B24445E7DDBDE8FC8F9004002025
:1038C00010B50246012000E050430B00A1F10104B5
:1038D000E1B2F9D110BD000030B504460D4667488D
:1038E000808849F24131884205D06448808845F299
:1038F0001031884214D16149488900F0DFF9201263
:1039000000F0D0F9E0B200F0CDF95C49888900F010
:10391000D5F9281200F0C6F9E8B200F0C3F9ABE01F
:103920005648808846F6040188421DD15348807964
:10393000012804D151480088401E001B84B24F4921
:10394000488900F0BBF9201200F0ACF9E0B200F0B9
:10395000A9F94A49888900F0B1F9281200F0A2F9C2
:10396000E8B200F09FF987E04448808841F663118F
:10397000884247D141488079A8B940480088401E14
:10398000001B84B23D49488900F098F9002000F0FE
:1039900089F9002000F086F9201200F083F9E0B2E6
:1039A00000F080F916E03549488900F087F92012C7
:1039B00000F078F9E0B200F075F930490988491E45
:1039C000C1F30F2000F06EF92C490978491EC8B2E6
:1039D00000F068F92949888900F070F9281200F090
:1039E00061F9E8B200F05EF924494988491EC1F343
:1039F0000F2000F057F921498978491EC8B200F01C
:103A000051F939E01D48808845F21051884220D193
:103A10001A49488900F052F9201200F043F9174979
:103A20004989491C88B200F049F9E0B200F03AF93E
:103A30001249888900F042F9281200F033F90F4941
:103A40008989491C88B200F039F9E8B200F02AF9F6
:103A500012E00A488079012804D108480088401EF5
:103A6000001B84B205494889214600F03DF903490D
:103A70008889294600F038F930BD00009004002004
:103A80002DE9F84F80460E4617461C46B3462046A1
:103A9000E31704EB5373DB1021464FEAE47C04EB9D
:103AA0005C7C4FEAEC0CA4EBCC0CBCF1000F02D018
:103AB0004FF0010C01E04FF0000C6344224604EB90
:103AC000D27C4FEA6C0C03FB0CF3DBB20093A7F142
:103AD0002000C7B2002556E00C2C07D107EB4700A9
:103AE0002B4901EB800010F8059013E0102C05D154
:103AF000284800EB071010F805900BE0182C07D1B0
:103B000007EBC700244901EB800010F8059001E0A5
:103B1000BDE8F88F4FF0000A2FE009F0800030B1C7
:103B20001E48028831464046FFF7AEFD07E00A987E
:103B300028B91B48028831464046FFF7A5FD4FEAE9
:103B400049604FEA1069701C86B216484088B0423E
:103B500000DCDDE7A6EB0B00A0420AD15E4608F1CF
:103B600001001FFA80F80F480088404500DCCFE7CD
:103B700006E00AF1010000F0FF0ABAF1080FCCDB01
:103B800000BF681CC5B200988542A5DB00BFBFE737
:103B900054B60008C8BA0008B8C000080A000020DF
:103BA0000C000020900400202DE9FF4F81B0074653
:103BB00091461E460E9D4FF0000A002439E0301B4E
:103BC000401EC1B20A20FFF77BFEB9FBF0F00A21CC
:103BD000B0FBF1F201FB1208BAF1000F16D1701E12
:103BE000A04213DDB8F1000F0ED10020AB4605EB6B
:103BF000DB71491001FB0471009088B22B46202232
:103C00000299FFF73DFF12E04FF0010A0020AB469A
:103C100005EBDB71491001FB0471009088B208F1DB
:103C20003001CAB22B460299FFF72AFF00BF601C81
:103C3000C4B2B442C3DB05B0BDE8F08F2DE9F8474C
:103C400004460D4690469946DDE9096704F0FF0AEF
:103C500008EB04001FFA80F809EB05001FFA80F951
:103C600016E0444502DB5446A81985B24D4500DBF9
:103C700014E0002000903A78334629462046FFF7AA
:103C8000FFFE304606EBD07104EB61018CB27F1C65
:103C900038787E2802DC38782028E2DA00BFBDE8D8
:103CA000F887000001B5BDF800000090BDF80000E5
:103CB0000149088008BD00008000006C01B5BDF816
:103CC00000000090BDF800000149088008BD000018
:103CD0007E00006C0248008902490880704700009D
:103CE000900400207E00006C034A10804FF0D84200
:103CF000A2F88010704700007E00006C1CB5012106
:103D0000202000F051FA0121402000F04DFA4FF43C
:103D1000C060009001208DF8040000208DF806009E
:103D200003208DF8050001208DF80700694613482F
:103D3000FEF70AFF4FF4D0611048FEF772FF4DF610
:103D40001400009001208DF8040000208DF806007A
:103D500003208DF8050001208DF80700694608480A
:103D6000FEF7F2FE4CF614010548FEF758FF41F24B
:103D700010010348FEF755FF1CBD0000001402406F
:103D80000018024000BFFEE77047000070B5002138
:103D900000230F22C4781CB3174C246804F4E06499
:103DA000C4F5E064C4F30721C1F10404E3B20A419D
:103DB00044789C40E1B28478144021430C07210EE2
:103DC0000E4C05786155047804F01F050124AC40C1
:103DD00005786D11AD0005F1E025C5F8004109E059
:103DE000047804F01F050124AC40054D06787611D7
:103DF00045F8264070BD00000CED00E000E400E056
:103E000080E100E002490143024A1160704700006E
:103E10000000FA050CED00E00EB500200290012133
:103E2000062000F0C1F90220009000208DF8040067
:103E30008DF8060003208DF8050001208DF807009D
:103E400069461948FEF780FE4FF4005000900120AB
:103E50008DF8040069461548FEF776FEFDF7E2FF8F
:103E6000002013490860642004F056FF0120114926
:103E7000C1F8B402642004F04FFF012000F056F9AD
:103E8000012202A94FF4506000F01CF89DF80810C0
:103E900009A0FCF77BFA9DF80800802801D10020DA
:103EA0000EBD0120FCE700000004024000080240B3
:103EB000B4024142000041424354502049443A2553
:103EC000780D0A002DE9F04105460F461646FEF72B
:103ED0005DF8B220FEF728F8FEF7A2F82812FEF7E8
:103EE00023F8FEF79DF8E8B2FEF71EF8FEF798F803
:103EF000FEF74CF8B320FEF717F8FEF791F8002410
:103F00000BE0711EA14201D0012100E00021084612
:103F1000FDF7D4FF3855601CC4B2B442F1DBFEF7A4
:103F20005BF8BDE8F081000031B52DED068B82B065
:103F30000024002574480078401C73490870084626
:103F400000780A2190FBF1F201FB120018B16E48D3
:103F500000780A287EDA012208A90020FFF7B2FFC4
:103F60009DF8200000F01F00002873D09DF820006D
:103F700000F01F0040F0C000644981F820000024D8
:103F800086E0624890F820000121A1400840002806
:103F90007CD05F4931F81400042201A9FFF792FF99
:103FA0005A4890F8300000F00100D0B39DF8071097
:103FB0009DF8062001EB022006F077FF41EC190B7B
:103FC0009FED540B53EC102B06F0D6FF41EC180B71
:103FD00006F03EFF81B24D48163020F814109DF8CF
:103FE00005109DF8042001EB022006F05EFF41EC75
:103FF0001A0B9FED4A0B53EC102B06F0BDFF41EC62
:10400000190B9FED480B53EC102B07F0E9F841EC2E
:10401000180B06F01DFF81B23C480C3020F814103C
:1040200034E0FFE79DF807109DF8062001EB022021
:1040300006F03BFF41EC190B9FED360B53EC102BB8
:1040400006F09AFF41EC180B06F002FF81B22F48F0
:104050000C3000E02BE020F814109DF805109DF8BE
:10406000042001EB022006F020FF41EC190B9FED2C
:104070002B0B53EC102B06F07FFF41EC180B06F0D6
:10408000E7FE81B22148163020F81410601CC4B23B
:10409000052CFFF676AF01251C48808920B91B4806
:1040A000C08A08B9002008900020174908709DF8C0
:1040B000200000F01F00D0B9144890F8200000F054
:1040C000800040B1114890F8200020F080000F4996
:1040D00081F820000BE04FF6FF700C498881C88200
:1040E000084690F8200000F0E00081F82000064823
:1040F0000078F02802DD0A2003490870284602B043
:10410000BDEC068B38BD00002200002024000020FA
:10411000E0CE00087B14AE47E17AD43FD8817346E5
:1041200094F6D23F000000000000894038B50446F4
:10413000002000900CB180200090012269464FF4CD
:10414000506000F001F838BD2DE9F04104460E46FC
:1041500017464FF00008FDF719FFB220FDF7E4FE07
:10416000FDF75EFF2012FDF7DFFEFDF759FFE0B21D
:10417000FDF7DAFEFDF754FF00250BE0705DFDF75B
:10418000D3FEFDF74DFF8046B8F1000F00D003E0ED
:10419000681CC5B2BD42F1DB00BFFDF71DFF404604
:1041A000BDE8F0817047000029B1064A1268024359
:1041B000044B1A6004E0034A12688243014B1A6000
:1041C000704700003038024029B1064A12680243A5
:1041D000044B1A6004E0034A12688243014B1A60E0
:1041E000704700004038024029B1064A1268024375
:1041F000044B1A6004E0034A12688243014B1A60C0
:10420000704700002038024029B1064A1268024374
:10421000044B1A6004E0034A12688243014B1A609F
:10422000704700004438024029B1064A1268024330
:10423000044B1A6004E0034A12688243014B1A607F
:104240007047000024380240F0B50021002200240D
:10425000022500260223324F3F6807F00C0121B1EE
:10426000042905D0082937D105E02E4F076036E034
:104270002D4F076033E02A4F3F1F3F68C7F380563A
:10428000274F3F1F3F6807F03F036EB1264FB7FB34
:10429000F3F7DFF88CC0ACF1040CDCF800C0CCF311
:1042A000881C07FB0CF40CE01E4FB7FBF3F7DFF89C
:1042B00070C0ACF1040CDCF800C0CCF3881C07FB28
:1042C0000CF4174F3F1F3F68C7F301477F1C7D0069
:1042D000B4FBF5F7076002E0124F076000BF00BFB4
:1042E0000F4F3F6807F0F0010909104F7A5C07682B
:1042F000D74047600A4F3F6807F4E051890A0B4FE7
:104300007A5C4768D7408760054F3F6807F4604193
:10431000490B064F7A5C4768D740C760F0BD000084
:10432000083802400024F40000127A005E000020E9
:104330007CB50546002400200090019000260DB1B8
:10434000022600E000262248006800F0007008B154
:104350000E207CBD1F49098888B26946FEF72AFBFA
:1043600004460CB12046F4E7019800F4802060B3C5
:104370001848008800041849086037204860402029
:1043800088600020C8604FF480600861084600F033
:104390009BF83720FDF78CFE04460CB12046D8E789
:1043A0000D48066006200C494860402088600020C7
:1043B000C8604FF480600861084600F085F8062068
:1043C000FDF776FE04462046C3E72520C1E700003E
:1043D000142C014014000020B8040020014908609A
:1043E00070470000382C01400146034A106820F055
:1043F000FF00084310607047042C014000210B4B64
:1044000002681A601B1D42681A601A1D116821F0AB
:10441000F701D0E902231A4303691A4343691A4397
:104420001143024A0832116070470000242C0140F9
:1044300001460020034A12680A400AB1012000E048
:1044400000207047342C01400248006800F003004F
:1044500070470000002C014010B500F07FFC10BD3B
:1044600000210A4A116847F6FF629143027D836882
:104470001A4343681A43C3681A4303681A4303691B
:104480001A431143014A116070470000042C014097
:1044900000200B490860091D0860091D0860091DFE
:1044A0000860074924310860091D0860091D08607B
:1044B00004480349383108600020091D086070472E
:1044C000002C0140FF07C0000021094B02681A6060
:1044D0001A1D11686FF30A01D0E901231A43C3685A
:1044E0001A4303691A431143014A121D11607047B0
:1044F000082C01400149086070470000002C014071
:1045000070B590B004460E46154600BF1A48FDF738
:10451000C8FF0028FAD11848FDF70CFF4FF00060E3
:10452000019016480290039404950020059006908F
:104530004FF4806007908000089080000990002070
:104540000A904FF440300B9004200C9003200D9003
:104550004FF400000E9080100F9001A90648FDF75F
:10456000ABFF20210448FDF791FF01210248FDF730
:10457000D5FE10B070BD000058640240802C014090
:1045800070B50446002516480078032802D1272577
:10459000284670BD1248007838B1114800780128CB
:1045A00003D00F480078022817D1B4F5805F02D1FC
:1045B00027252846EDE7E0B2FFF7BAFE054665B9C4
:1045C0000848006820F4C0500649086008460068A2
:1045D000204308600846006808602846D9E70000C4
:1045E00010000020042C0140F0B5014600200022FC
:1045F000BE4B1B7881F85630BD4B1B88A1F8543058
:10460000BC4B1B681A0E93090B70C2F383034B70EB
:1046100002F003038B70B74B1B68C3F30742CA70E9
:10462000B44B1B88C3F307220A71B24B1A784A7144
:104630005B681A0E1301CB80AE4B5B68C3F3074275
:10464000CB8843EA1213CB8002F00F030B72A94B05
:104650009B88C3F30722D3094B72C2F380138B727A
:10466000C2F34013CB72C2F300130B7300234B73DE
:104670009E4B1B783BB19D4B1B78012B03D09B4B72
:104680001B78032B4FD193071B0D0B61994B1A79A4
:104690000B6943EA82030B61964B9B681A0E0B6908
:1046A00043EA92130B61C2F3C2030B7502F00703D6
:1046B0004B75904B9B68C3F3074253098B75C2F34C
:1046C0008203CB7593075B0F0B768A4B1B89C3F371
:1046D00007220B7E43EAD2130B760B695B1C002486
:1046E000C1E912340B7E9B1C012404FA03F3DC178E
:1046F000D1E91256A5FB037C06FB03C305FB04337B
:10470000C1E912730C7A0123A3400B650024D1E99F
:1047100012650B6DA6FB037C05FB03C306FB04338C
:10472000C1E912732EE0714B1B78022B2AD1714B19
:104730001A7993069B0A0B616E4B9B681A0E0B69E4
:1047400043EA02230B616B4B9B68C3F307420B697F
:1047500013430B61674B1B89C3F307220B695B1C77
:104760004FF40074A3FB04464FF480630025A4FBC0
:10477000037C06FB03C304FB0533C1E912734FF44A
:1047800000730B65C2F3801301F8193F93065B0EAB
:104790004B70584B1A7A4B7843EAD2134B7002F0A5
:1047A0007F038B70534BDB681A0ED309CB70C2F3B7
:1047B00041130B71C2F382034B7193071B0F8B7173
:1047C0004C4BDB68C3F307428B7943EA92138B713E
:1047D000C2F34013CB7100230B7202F001034B7242
:1047E000444B9B89C3F30722D3098B72C2F3801316
:1047F000CB72C2F340130B73C2F300134B73C2F3BB
:1048000081038B7302F00303CB733A4B1A7B53087B
:104810000B7401234B74384B1B681A0ECA74193978
:10482000354B1B68C3F307421402CC85324B1B88FF
:10483000C3F30722CB8D1343CB852F4B1A78140675
:104840000C635B681A0E0B6B43EA02440C632A4B41
:104850005B68C3F307420B6B43EA02240C63264BED
:104860009B88C3F307220B6B13430B63224B1A790C
:1048700034235A54204B9B681A0E35235A541E4B2E
:104880009B68C3F3074214068C631B4B1B89C3F35D
:1048900007228B6B43EA02448C63174B1A7A8B6BAB
:1048A00043EA02248C63144BDB681A0E8B6B1343B0
:1048B0008B63114BDB68C3F307423C235B5C43EA29
:1048C00012143C235C5413071C0DCC870A4B9B89A4
:1048D000C3F30722CB8F1343CB87074B1A7B5408B4
:1048E00040235C54012441235C54F0BD100000209F
:1048F00014000020E4040020F40400203EB500244D
:1049000001213F48FFF750FC0121C802FFF77CFC62
:104910000121C802FFF788FC4FF4F85001900220F3
:104920008DF808008DF8090000208DF80A0001209C
:104930008DF80B0001A93348FEF706F90420019019
:1049400001A93148FEF700F90C2208212D48FEF795
:1049500043F90C2209212B48FEF73EF90C220A21CB
:104960002848FEF739F90C220B212648FEF734F9C6
:104970000C2211462348FEF72FF90C22022122486F
:10498000FEF72AF900214FF40060FFF74DFCFFF716
:104990007FFD31208DF8000000208DF801008DF89A
:1049A000020001208DF803006846FFF7EFF900F0E0
:1049B000E3F8044614B900F02DF804461CB9134876
:1049C000FFF712FE044634B91049B1F85410080438
:1049D00000F06CFD044624B94FF40060FFF7D0FDF1
:1049E00004461CB10A480078032806D10020FFF7CE
:1049F000FBFC002000F072FD044620463EBD000096
:104A00000C00400000080240000C02400805002095
:104A10001000002038B5002401200090FFF714FD9D
:104A200010B92524204638BD4D480078042824D0EC
:104A300000204C49086002204860C02088600020A7
:104A4000C8604FF4806008610846FFF73DFDFDF740
:104A500061FB04460CB12046E5E743480068434942
:104A600008604148001D006848603F480830006801
:104A700088603D480C300068C8603948007858B1FB
:104A800037480078012807D035480078062803D039
:104A900033480078022816D10020324908600320EC
:104AA0004860402088600020C8604FF48060086142
:104AB0000846FFF709FD69460320FDF771FB044630
:104AC0000CB12046AFE726480078032816D1BDF880
:104AD00000000004234908600320486040208860EB
:104AE0000020C8604FF4806008610846FFF7ECFCC6
:104AF000FDF710FB04460CB1204694E718480078F7
:104B000004282AD0BDF8000019490860BDF800004B
:104B100000041449086009204860C0208860002013
:104B2000C8604FF4806008610846FFF7CDFCFDF7D0
:104B3000F1FA04460CB1204675E70B4800680D49B0
:104B400008600948001D0068486007480830006890
:104B5000886005480C300068C860002063E70000EA
:104B600010000020B8040020142C0140F4040020A0
:104B700014000020E40400202DE9F0470027002461
:104B800000260025A046A14676206E490875002023
:104B9000086048608860C86008610846FFF760FCEC
:104BA0000320FFF7A7FC6848006840F4807066495E
:104BB000086000BF12E00020644908604860886017
:104BC000C8604FF4806008610846FFF77DFCFDF780
:104BD00057FA044604B903E0781CC7B24A2FEADB4F
:104BE00000BF14B12046BDE8F0874FF4D570574997
:104BF000086008204860402088600020C8604FF4AA
:104C0000806008610846FFF75FFCFDF713FB044670
:104C100024B901204E4908704FF0804900204B49CB
:104C2000086037204860402088600020C8604FF44A
:104C3000806008610846FFF747FC3720FDF738FA27
:104C40000446002C4CD135E0002040490860372054
:104C50004860402088600020C8604FF48060086190
:104C60000846FFF731FC3720FDF722FA04460CB165
:104C70002046B8E7374849EA00003449086029204F
:104C80004860402088600020C8604FF48060086160
:104C90000846FFF719FCFDF767FA04460CB12046F9
:104CA000A1E7294810300668012080EAD67080F01C
:104CB00001086D1CB8F1000F03D14FF6FF7085425B
:104CC000C2D34FF6FF70854202D31B2420468AE7E9
:104CD00006F08040060033D002201D4908702FE006
:104CE0001DE01D4819490860012048604020886087
:104CF0000020C8604FF4806008610846FFF7E4FBBD
:104D0000FDF732FA04460CB120466CE70E4810302D
:104D10000668012080EAD67080F001086D1CB8F1A9
:104D2000000F03D14FF6FF708542DAD34FF6FF70C4
:104D3000854202D31B24204655E70320044908700E
:104D4000204650E7A0040020042C0140B8040020B5
:104D500010000020000010800080FF8010B54FF48C
:104D60008070FFF765FB78B34C480078012814D1B8
:104D700000204B4908600C204860402088600020DB
:104D8000C8604FF4806008610846FFF79DFB0C2067
:104D9000FDF78EF94349087002E000204149087090
:104DA0004148006840F480703F490860081D006871
:104DB0004CF23A3188433C49091D086001203B49C7
:104DC00008703848007810BDFFE70220FFF730FB7D
:104DD00078B10220FFF702FB3348001D00684CF257
:104DE0003A3188433049091D086002202D49087076
:104DF000E9E70820FFF71CFB78B10820FFF7EEFA7F
:104E00002948001D00684CF23A3188432649091DA3
:104E10000860042023490870D5E72020FFF708FB2D
:104E200078B12020FFF7DAFA1F48001D00684CF225
:104E30003A3188431C49091D086006201949087049
:104E4000C1E71020FFF7F4FA78B11020FFF7C6FA97
:104E50001548001D00684CF23A3188431249091D7B
:104E6000086005200F490870ADE74FF40070FFF7A8
:104E7000DFFA80B14FF40070FFF7B0FA0A48001D66
:104E800000684CF23A3188430749091D0860072041
:104E90000449087097E7002095E7000019000020FA
:104EA000B80400201A000020382C01401B0000200C
:104EB0002DE9F84F8146174698460A9C4FF0000AA4
:104EC000D3464D464FF0FF36B9F1000F02D12620F0
:104ED000BDE8F88F002086490860864800780228DF
:104EE00005D10402780A40EAC8574FEA6828002032
:104EF000814988604860401E0860012048610020A8
:104F0000C86008610846FFF779FA794818380068E0
:104F100000F0007008B10E20DAE7002C21DDB4F5B6
:104F2000006F1EDC601E2040D8B9204603F0CCFE86
:104F300000907248046010207049486040208860EA
:104F40000020C8604FF4806008610846FFF7BCFA93
:104F50001020FDF7ADF88246BAF1000F03D050469D
:104F6000B6E72620B4E70098000163498860084648
:104F700044604FF0FF300860012048610220C860A3
:104F8000002008610846FFF739FA5C4807601120E5
:104F90005A494860402088600020C8604FF4806013
:104FA00008610846FFF790FA1120FDF781F8824664
:104FB000BAF1000F01D050468AE751480078002826
:104FC0005CD1FBF7A8F918E04FF40040FFF730FA86
:104FD00078B14FF0000B06E045485430006845F8C2
:104FE0002B000BF1010BBBF1080FF5D32035454E1B
:104FF00003E00EB904206BE7761E3D4808300068D8
:1050000040F22A6108400028DED00820FFF710FA9D
:1050100020B10820FFF7E2F9042059E70220FFF74A
:1050200007FA20B10220FFF7D9F9022050E720202B
:10503000FFF7FEF920B12020FFF7D0F9062047E75F
:105040004FF40070FFF7F4F928B14FF40070FFF748
:10505000C5F907203CE704E0254854300068286083
:105060002D1D4FF40010FFF7E3F90028F4D1FBF7F2
:1050700054F940F2FF50FFF7B1F936E020480078CC
:10508000012832D1002020490870204908702049A9
:10509000087017481030006840F22A31084314495C
:1050A000103108601248006840F00800104908609C
:1050B000002221464846FFF723FA00E0761E1548F5
:1050C000006800F0006038B91148007820B90E4837
:1050D000007808B9002EF1D10EB90420F8E60A488C
:1050E000007810B1084890F800A05046F0E60000A3
:1050F0002C2C014010000020CC040020B80400201B
:1051000018000020FFFF7F001A0000201900002077
:105110001B000020006402402DE9FE4F83460E462E
:10512000914600200290002534462148007818B1AD
:10513000680240EAD45564020BF00300F0B14FF06E
:10514000000A18E04FF4007000904FEA4A20071957
:1051500045EBE0733A461748FFF7AAFE02904FF47A
:10516000007214495846FBF70BFB0BF5007B0AF164
:10517000010000F0FF0ACA45E4DB16E0B9F1010FB7
:1051800009D14FF4007022462B4600905846FFF795
:105190008FFE029009E04FF4007022462B46CDE9C5
:1051A0000009584600F008F802900298BDE8FE8F0A
:1051B00010000020600500202DE9FF5F174698468B
:1051C000DDE90E464FF00009CA464FF0FF35AC4905
:1051D000009808600020AB490860AB4800780228BE
:1051E00005D10402780A40EAC8574FEA682800202F
:1051F000A64988604860401E086001204861002080
:10520000C86008610846FFF7F9F89E48183800683A
:1052100000F0007018B10E2004B0BDE8F09F002C23
:1052200021DDB4F5006F1EDC601E2040D8B9204699
:1052300003F04AFD83469648046010209449486074
:10524000402088600020C8604FF4806008610846F4
:10525000FFF73AF91020FCF72BFF8146B9F1000F58
:1052600003D04846D8E72620D6E7012E71D906FBA1
:1052700004F0B0F1007F01D32620CDE74FEA0B10F8
:105280008249886006FB04F048604FF0FF300860F8
:10529000012048610220C860002008610846FFF72D
:1052A000ADF87B480760122079494860402088604B
:1052B0000020C8604FF4806008610846FFF704F9D9
:1052C0001220FCF7F5FE8146B9F1000F01D04846E7
:1052D000A2E77048007800287ED1FBF71CF81EE09A
:1052E0004FF40040FFF7A4F8A8B14FF0000A08E01F
:1052F0006448543000686249096841F82A000AF19C
:10530000010ABAF1080FF3D35D48006820305C4908
:105310000860614D03E00DB904207DE76D1E59481A
:105320000830006840F22A3108400028D8D0082010
:10533000FFF77EF820B10820FFF750F804206BE754
:105340000220FFF775F828B10220FFF747F8022086
:1053500062E792E02020FFF76BF820B12020FFF7F2
:105360003DF8062058E74FF40070FFF761F828B1C8
:105370004FF40070FFF732F807204DE70AE041488C
:10538000543000683E49096808603D480068001DC7
:105390003B4908604FF40010FFF74AF80028EED1AF
:1053A0004FF48070FFF744F820B33748007838B1E5
:1053B00035480078012803D033480078022819D1F5
:1053C0000020334908600C2048604020886000209D
:1053D000C8604FF4806000E013E008610846FFF702
:1053E00073F80C20FCF764FE8146B9F1000F01D080
:1053F000484611E7FAF791FF40F2FF50FEF7EEFF43
:105400003BE024480078012837D100202349087068
:1054100001202349087000202249087019481030E3
:10542000006840F22A3108431649103108601548D7
:10543000006840F008001349086006FB04F10022F0
:105440000098FFF75DF800E06D1E1748006800F057
:10545000006008B9002DF7D10DB90420DCE600BFCB
:105460001048007818B90D4800780028F8D00B488B
:10547000007810B1094890F800904846CCE600004A
:105480001C0000202C2C014010000020CC04002027
:10549000B804002018000020FFFF7F001A00002041
:1054A000190000201B0000200064024010B50446D3
:1054B00009480460072008494860402088600020AF
:1054C000C8604FF4806008610846FEF7FDFF0720C2
:1054D000FCF7EEFD10BD0000B804002001460020DE
:1054E000012900D011B9024B197000E02620704745
:1054F000180000202DE9FF5F86B017469846149DDE
:1055000000260020059004900024814603908246E6
:1055100002900195DDF818B0DDF818B0BBF1000F6E
:1055200003D126200AB0BDE8F09F0020C9490860D9
:10553000C94988604860401E086001204861002019
:10554000C86008610846FEF759FFC248183800686D
:1055500000F0007008B10E20E4E7C048007802288F
:1055600005D10502780A40EAC8574FEA6828002D9D
:105570001FDDB5F5006F1CDC681E2840C8B9284641
:1055800003F0A2FB0590B64805601020B4494860BE
:10559000402088600020C8604FF4806008610846A1
:1055A000FEF792FF1020FCF783FD06461EB1304641
:1055B000B8E72620B6E7AB4800880004A849086091
:1055C0000D204860402088600020C8604FF4806053
:1055D00008610846FEF778FF0D20FCF769FD0646D6
:1055E0000EB130469EE79B481838006803904FF094
:1055F000FF341CE0641E9B48008800049849086042
:105600000D204860402088600020C8604FF4806012
:1056100008610846FEF758FF0D20FCF749FD0646D5
:105620000EB130467EE78B48183800680390039827
:1056300000F4807008B9002CDCD10CB9292071E786
:10564000874807601820864948604020886000200D
:10565000C8604FF4806008610846FEF735FF1820E7
:10566000FCF726FD06460EB130465BE700207E497A
:1056700008700598000178498860084645604FF039
:10568000FF300860012048610020C86008610846BA
:10569000FEF7B4FE4FF0FF347448007800287ED146
:1056A000FAF739FE45E04FF48040FEF7C1FED8B36B
:1056B0000198A0EB0900202822D20198A0EB090054
:1056C00000F0030020B90198A0EB0900800804E075
:1056D0000198A0EB09008008401C02904FF0000ADE
:1056E0000AE05C495431DBF8000008600AF1010A65
:1056F0000BF1040B09F1040902988245F1D310E083
:105700004FF0000A06E05BF82A0052495431086065
:105710000AF1010ABAF1080FF5D30BF1200B09F1D8
:1057200020096FF0404404E0FFE70CB90420F9E6DB
:10573000641E48480830006840F21A61084000289A
:10574000B1D00820FEF774FE20B10820FEF746FE17
:105750000420E7E60220FEF76BFE20B10220FEF7F0
:105760003DFE0220DEE61020FEF762FE20B1102092
:10577000FEF734FE0520D5E64FF40070FEF758FE24
:1057800030B14FF40070FEF729FE0720CAE606E0AC
:10579000FAF7C3FD40F2FF50FEF720FE41E0334828
:1057A000007801283DD10020314908702E49087049
:1057B0003049087027481030006840F21A31084319
:1057C000244910310860402229460698FEF798FEC9
:1057D0002048006840F008001E49086000E0641E90
:1057E0002548006800F0006008B9002CF7D11CB90A
:1057F000FFF784F8042095E64FF0FF3400E0641EC4
:105800001C48007820B91A48007808B9002CF6D155
:105810000CB9042086E61648007810B114480078C8
:1058200080E640F2FF50FEF7D9FD04A8FDF7F0FD39
:10583000064603E004A8FDF7EBFD06463EB99DF8D9
:1058400010000728F6D09DF810000628F2D0304648
:1058500068E600002C2C0140CC0400201000002041
:10586000B8040020140000201900002018000020B7
:105870001A0000201B000020006402402DE9FE4FAA
:105880000646894692460020029000254C46214853
:10589000007818B1680240EAD455640206F00300AB
:1058A000F0B14FF0000B18E04FF4007231461A4887
:1058B000FAF766FF4FF4007000904FEA4B2007198B
:1058C00045EBE0733A461448FFF714FE029006F5E4
:1058D00000760BF1010000F0FF0BD345E4DB16E08E
:1058E000BAF1010F09D14FF4007022462B46009007
:1058F0003046FFF7FFFD029009E04FF400702246AA
:105900002B46CDE9000A304600F008F802900298D4
:10591000BDE8FE8F10000020600500202DE9FF5F2C
:1059200084B0DDE912470026002003900290002594
:1059300080468146019007FB04FBDDF810A0DDF8EE
:1059400010A0BAF1000F03D1262008B0BDE8F09FE7
:105950000020DC490860DC4988604860401E08601F
:10596000012048610020C86008610846FEF746FD36
:10597000D4481838006800F0007008B10E20E4E741
:10598000D2480078022808D10402DDE90601400A65
:1059900040EAC1504912CDE90601002C1FDDB4F5E3
:1059A000006F1CDC601E2040C8B9204603F08CF953
:1059B0000390C74804601020C549486040208860B3
:1059C0000020C8604FF4806008610846FEF77CFD47
:1059D0001020FCF76DFB06461EB13046B5E72620C9
:1059E000B3E7012F6FD907FB04F0B0F1007F01D3BB
:1059F0002620AAE7B548007838B1B44800780128D5
:105A000003D0B248007802282DD1B24800880004A3
:105A1000AF49086037204860402088600020C86097
:105A20004FF4806008610846FEF74EFD3720FCF712
:105A30003FFB06460EB1304687E7A54807601720B2
:105A4000A3494860402088600020C8604FF480600F
:105A500008610846FEF738FD1720FCF729FB0646CB
:105A60000EB1304671E79A490698086019204860DF
:105A7000402088600020C8604FF4806008610846BC
:105A8000FEF722FD1920FCF713FB06460EB1304647
:105A90005BE7039800018C49886007FB04F04860CD
:105AA0004FF0FF300860012048610020C8600861A5
:105AB0000846FEF7A3FC88480078002874D1451EEC
:105AC000FAF729FC42E0E4E04FF48040FEF7B0FC36
:105AD000B8B3ABEB080020281FD2ABEB080000F0F6
